{
    "_format": "hh-sol-artifact-1",
    "contractName": "Transactions",
    "sourceName": "contracts/Transactions.sol",
    "abi": [
        {
            "anonymous": false,
            "inputs": [
                {
                    "indexed": false,
                    "internalType": "address",
                    "name": "from",
                    "type": "address"
                },
                {
                    "indexed": false,
                    "internalType": "address",
                    "name": "reciever",
                    "type": "address"
                },
                {
                    "indexed": false,
                    "internalType": "uint256",
                    "name": "amount",
                    "type": "uint256"
                },
                {
                    "indexed": false,
                    "internalType": "string",
                    "name": "message",
                    "type": "string"
                },
                {
                    "indexed": false,
                    "internalType": "uint256",
                    "name": "timestamp",
                    "type": "uint256"
                },
                {
                    "indexed": false,
                    "internalType": "string",
                    "name": "keyword",
                    "type": "string"
                }
            ],
            "name": "Transfer",
            "type": "event"
        },
        {
            "inputs": [
                {
                    "internalType": "address payable",
                    "name": "reciever",
                    "type": "address"
                },
                {
                    "internalType": "uint256",
                    "name": "amount",
                    "type": "uint256"
                },
                {
                    "internalType": "string",
                    "name": "message",
                    "type": "string"
                },
                {
                    "internalType": "string",
                    "name": "keyword",
                    "type": "string"
                }
            ],
            "name": "addToBlockchain",
            "outputs": [],
            "stateMutability": "nonpayable",
            "type": "function"
        },
        {
            "inputs": [],
            "name": "getAllTranscations",
            "outputs": [
                {
                    "components": [
                        {
                            "internalType": "address",
                            "name": "sender",
                            "type": "address"
                        },
                        {
                            "internalType": "address",
                            "name": "reciever",
                            "type": "address"
                        },
                        {
                            "internalType": "uint256",
                            "name": "amount",
                            "type": "uint256"
                        },
                        {
                            "internalType": "string",
                            "name": "message",
                            "type": "string"
                        },
                        {
                            "internalType": "uint256",
                            "name": "timestamp",
                            "type": "uint256"
                        },
                        {
                            "internalType": "string",
                            "name": "keyword",
                            "type": "string"
                        }
                    ],
                    "internalType": "struct Transactions.TransferStruct[]",
                    "name": "",
                    "type": "tuple[]"
                }
            ],
            "stateMutability": "view",
            "type": "function"
        },
        {
            "inputs": [],
            "name": "getTransactionCount",
            "outputs": [
                {
                    "internalType": "uint256",
                    "name": "",
                    "type": "uint256"
                }
            ],
            "stateMutability": "view",
            "type": "function"
        }
    ],
    "bytecode": "0x608060405234801561001057600080fd5b5061076f806100206000396000f3fe608060405234801561001057600080fd5b50600436106100415760003560e01c80632e7700f0146100465780634c0848811461005c578063cc2d7ead14610071575b600080fd5b6000546040519081526020015b60405180910390f35b610064610086565b60405161005391906103d9565b61008461007f36600461053d565b610241565b005b60606001805480602002602001604051908101604052809291908181526020016000905b828210156102385760008481526020908190206040805160c0810182526006860290920180546001600160a01b0390811684526001820154169383019390935260028301549082015260038201805491929160608401919061010b906105c9565b80601f0160208091040260200160405190810160405280929190818152602001828054610137906105c9565b80156101845780601f1061015957610100808354040283529160200191610184565b820191906000526020600020905b81548152906001019060200180831161016757829003601f168201915b50505050508152602001600482015481526020016005820180546101a7906105c9565b80601f01602080910402602001604051908101604052809291908181526020018280546101d3906105c9565b80156102205780601f106101f557610100808354040283529160200191610220565b820191906000526020600020905b81548152906001019060200180831161020357829003601f168201915b505050505081525050815260200190600101906100aa565b50505050905090565b60016000808282546102539190610603565b90915550506040805160c0810182523381526001600160a01b03868116602083019081529282018681526060830186815242608085015260a08401869052600180548082018255600091909152845160069091027fb10e2d527612073b26eecdfd717e6a320cf44b4afac2b0732d9fcbe2b7fa0cf6810180549286166001600160a01b031993841617815596517fb10e2d527612073b26eecdfd717e6a320cf44b4afac2b0732d9fcbe2b7fa0cf7820180549190961692169190911790935590517fb10e2d527612073b26eecdfd717e6a320cf44b4afac2b0732d9fcbe2b7fa0cf8830155519192917fb10e2d527612073b26eecdfd717e6a320cf44b4afac2b0732d9fcbe2b7fa0cf99091019061036b9082610679565b506080820151600482015560a0820151600582019061038a9082610679565b50505050505050565b6000815180845260005b818110156103b95760208185018101518683018201520161039d565b506000602082860101526020601f19601f83011685010191505092915050565b60006020808301818452808551808352604092508286019150828160051b87010184880160005b8381101561048c57888303603f19018552815180516001600160a01b039081168552888201511688850152868101518785015260608082015160c0828701819052919061044f83880182610393565b92505050608080830151818701525060a080830151925085820381870152506104788183610393565b968901969450505090860190600101610400565b509098975050505050505050565b634e487b7160e01b600052604160045260246000fd5b600082601f8301126104c157600080fd5b813567ffffffffffffffff808211156104dc576104dc61049a565b604051601f8301601f19908116603f011681019082821181831017156105045761050461049a565b8160405283815286602085880101111561051d57600080fd5b836020870160208301376000602085830101528094505050505092915050565b6000806000806080858703121561055357600080fd5b84356001600160a01b038116811461056a57600080fd5b935060208501359250604085013567ffffffffffffffff8082111561058e57600080fd5b61059a888389016104b0565b935060608701359150808211156105b057600080fd5b506105bd878288016104b0565b91505092959194509250565b600181811c908216806105dd57607f821691505b6020821081036105fd57634e487b7160e01b600052602260045260246000fd5b50919050565b8082018082111561062457634e487b7160e01b600052601160045260246000fd5b92915050565b601f82111561067457600081815260208120601f850160051c810160208610156106515750805b601f850160051c820191505b818110156106705782815560010161065d565b5050505b505050565b815167ffffffffffffffff8111156106935761069361049a565b6106a7816106a184546105c9565b8461062a565b602080601f8311600181146106dc57600084156106c45750858301515b600019600386901b1c1916600185901b178555610670565b600085815260208120601f198616915b8281101561070b578886015182559484019460019091019084016106ec565b50858210156107295787850151600019600388901b60f8161c191681555b5050505050600190811b0190555056fea264697066735822122005a2d61398c4667c53653bb83304319ae616b740f3d9900c052f07bd1e7cae8a64736f6c63430008110033",
    "linkReferences": {},
    "deployedLinkReferences": {}
}